{
  "address": "0x77E1Bb33d34392b3C0dB5dFFDbADceED752aFC3b",
  "abi": [
    {
      "inputs": [
        {
          "internalType": "address",
          "name": "router",
          "type": "address"
        },
        {
          "internalType": "string",
          "name": "_source",
          "type": "string"
        }
      ],
      "stateMutability": "nonpayable",
      "type": "constructor"
    },
    {
      "inputs": [],
      "name": "EmptyArgs",
      "type": "error"
    },
    {
      "inputs": [],
      "name": "EmptySecrets",
      "type": "error"
    },
    {
      "inputs": [],
      "name": "EmptySource",
      "type": "error"
    },
    {
      "inputs": [],
      "name": "NoInlineSecrets",
      "type": "error"
    },
    {
      "inputs": [],
      "name": "OnlyRouterCanFulfill",
      "type": "error"
    },
    {
      "inputs": [
        {
          "internalType": "bytes32",
          "name": "requestId",
          "type": "bytes32"
        }
      ],
      "name": "UnexpectedRequestID",
      "type": "error"
    },
    {
      "anonymous": false,
      "inputs": [
        {
          "indexed": true,
          "internalType": "address",
          "name": "from",
          "type": "address"
        },
        {
          "indexed": true,
          "internalType": "address",
          "name": "to",
          "type": "address"
        }
      ],
      "name": "OwnershipTransferRequested",
      "type": "event"
    },
    {
      "anonymous": false,
      "inputs": [
        {
          "indexed": true,
          "internalType": "address",
          "name": "from",
          "type": "address"
        },
        {
          "indexed": true,
          "internalType": "address",
          "name": "to",
          "type": "address"
        }
      ],
      "name": "OwnershipTransferred",
      "type": "event"
    },
    {
      "anonymous": false,
      "inputs": [
        {
          "indexed": true,
          "internalType": "bytes32",
          "name": "id",
          "type": "bytes32"
        }
      ],
      "name": "RequestFulfilled",
      "type": "event"
    },
    {
      "anonymous": false,
      "inputs": [
        {
          "indexed": true,
          "internalType": "bytes32",
          "name": "id",
          "type": "bytes32"
        }
      ],
      "name": "RequestSent",
      "type": "event"
    },
    {
      "anonymous": false,
      "inputs": [
        {
          "indexed": true,
          "internalType": "bytes32",
          "name": "requestId",
          "type": "bytes32"
        },
        {
          "indexed": false,
          "internalType": "bool",
          "name": "priceIncreased",
          "type": "bool"
        },
        {
          "indexed": false,
          "internalType": "uint256",
          "name": "previousTimestamp",
          "type": "uint256"
        },
        {
          "indexed": false,
          "internalType": "uint256",
          "name": "currentTimestamp",
          "type": "uint256"
        },
        {
          "indexed": false,
          "internalType": "bytes",
          "name": "err",
          "type": "bytes"
        }
      ],
      "name": "Response",
      "type": "event"
    },
    {
      "inputs": [],
      "name": "acceptOwnership",
      "outputs": [],
      "stateMutability": "nonpayable",
      "type": "function"
    },
    {
      "inputs": [
        {
          "internalType": "uint256",
          "name": "fromTimestamp",
          "type": "uint256"
        },
        {
          "internalType": "uint256",
          "name": "toTimestamp",
          "type": "uint256"
        }
      ],
      "name": "didPriceIncrease",
      "outputs": [
        {
          "internalType": "bool",
          "name": "priceIncreased",
          "type": "bool"
        },
        {
          "internalType": "bool",
          "name": "isSet",
          "type": "bool"
        }
      ],
      "stateMutability": "view",
      "type": "function"
    },
    {
      "inputs": [
        {
          "internalType": "bytes32",
          "name": "requestId",
          "type": "bytes32"
        },
        {
          "internalType": "bytes",
          "name": "response",
          "type": "bytes"
        },
        {
          "internalType": "bytes",
          "name": "err",
          "type": "bytes"
        }
      ],
      "name": "handleOracleFulfillment",
      "outputs": [],
      "stateMutability": "nonpayable",
      "type": "function"
    },
    {
      "inputs": [],
      "name": "owner",
      "outputs": [
        {
          "internalType": "address",
          "name": "",
          "type": "address"
        }
      ],
      "stateMutability": "view",
      "type": "function"
    },
    {
      "inputs": [
        {
          "internalType": "uint256",
          "name": "",
          "type": "uint256"
        },
        {
          "internalType": "uint256",
          "name": "",
          "type": "uint256"
        }
      ],
      "name": "priceIncreasedBetweenTimestamps",
      "outputs": [
        {
          "internalType": "bool",
          "name": "priceIncreased",
          "type": "bool"
        },
        {
          "internalType": "bool",
          "name": "isSet",
          "type": "bool"
        }
      ],
      "stateMutability": "view",
      "type": "function"
    },
    {
      "inputs": [],
      "name": "s_lastError",
      "outputs": [
        {
          "internalType": "bytes",
          "name": "",
          "type": "bytes"
        }
      ],
      "stateMutability": "view",
      "type": "function"
    },
    {
      "inputs": [],
      "name": "s_lastRequestId",
      "outputs": [
        {
          "internalType": "bytes32",
          "name": "",
          "type": "bytes32"
        }
      ],
      "stateMutability": "view",
      "type": "function"
    },
    {
      "inputs": [],
      "name": "s_lastResponse",
      "outputs": [
        {
          "internalType": "bytes",
          "name": "",
          "type": "bytes"
        }
      ],
      "stateMutability": "view",
      "type": "function"
    },
    {
      "inputs": [
        {
          "internalType": "bytes",
          "name": "encryptedSecretsUrls",
          "type": "bytes"
        },
        {
          "internalType": "uint8",
          "name": "donHostedSecretsSlotID",
          "type": "uint8"
        },
        {
          "internalType": "uint64",
          "name": "donHostedSecretsVersion",
          "type": "uint64"
        },
        {
          "internalType": "string[]",
          "name": "args",
          "type": "string[]"
        },
        {
          "internalType": "bytes[]",
          "name": "bytesArgs",
          "type": "bytes[]"
        },
        {
          "internalType": "uint64",
          "name": "subscriptionId",
          "type": "uint64"
        },
        {
          "internalType": "uint32",
          "name": "gasLimit",
          "type": "uint32"
        },
        {
          "internalType": "bytes32",
          "name": "donID",
          "type": "bytes32"
        }
      ],
      "name": "sendRequest",
      "outputs": [
        {
          "internalType": "bytes32",
          "name": "requestId",
          "type": "bytes32"
        }
      ],
      "stateMutability": "nonpayable",
      "type": "function"
    },
    {
      "inputs": [
        {
          "internalType": "bytes",
          "name": "request",
          "type": "bytes"
        },
        {
          "internalType": "uint64",
          "name": "subscriptionId",
          "type": "uint64"
        },
        {
          "internalType": "uint32",
          "name": "gasLimit",
          "type": "uint32"
        },
        {
          "internalType": "bytes32",
          "name": "donID",
          "type": "bytes32"
        }
      ],
      "name": "sendRequestCBOR",
      "outputs": [
        {
          "internalType": "bytes32",
          "name": "requestId",
          "type": "bytes32"
        }
      ],
      "stateMutability": "nonpayable",
      "type": "function"
    },
    {
      "inputs": [],
      "name": "source",
      "outputs": [
        {
          "internalType": "string",
          "name": "",
          "type": "string"
        }
      ],
      "stateMutability": "view",
      "type": "function"
    },
    {
      "inputs": [
        {
          "internalType": "address",
          "name": "to",
          "type": "address"
        }
      ],
      "name": "transferOwnership",
      "outputs": [],
      "stateMutability": "nonpayable",
      "type": "function"
    }
  ],
  "transactionHash": "0xce48bc75f9bd91ff846286b76f53a75ab55d734307ce85b9be4eb03da87e4402",
  "args": [
    "0xb83E47C2bC239B3bf370bc41e1459A34b41238D0",
    "const ethers = await import(\"npm:ethers@6.10.0\");\n\nconst fromTimestamp = args[0];\nconst toTimestamp = args[1];\n\nconst URL_PREVIOUS = `https://min-api.cryptocompare.com/data/pricehistorical?fsym=ETH&tsyms=USD&ts=` + fromTimestamp;\n\nconst URL_CURRENT = `https://min-api.cryptocompare.com/data/pricehistorical?fsym=ETH&tsyms=USD&ts=` + toTimestamp;\n\nconst apiResponsePrevious = await Functions.makeHttpRequest({\n  url: URL_PREVIOUS,\n});\nconst apiResponseCurrent = await Functions.makeHttpRequest({\n  url: URL_CURRENT,\n});\n\nconst dataPrevious = apiResponsePrevious.data;\nconst dataCurrent = apiResponseCurrent.data;\n\nconst previousEthPrice = Math.round(dataPrevious.ETH.USD * 10 ** 4);\nconst currentEthPrice = Math.round(dataCurrent.ETH.USD * 10 ** 4);\n\nconst encoded = ethers.AbiCoder.defaultAbiCoder().encode(\n  [\"bool\", \"uint256\", \"uint256\"],\n  [currentEthPrice > previousEthPrice, fromTimestamp, toTimestamp],\n);\n\nreturn ethers.getBytes(encoded);\n"
  ],
  "numDeployments": 12,
  "solcInputHash": "bd88f0bc10350f79769075f047d45bb3",
  "bytecode": "0x60a06040523480156200001157600080fd5b5060405162001e0e38038062001e0e8339810160408190526200003491620001a8565b6001600160a01b0382166080523380600081620000985760405162461bcd60e51b815260206004820152601860248201527f43616e6e6f7420736574206f776e657220746f207a65726f000000000000000060448201526064015b60405180910390fd5b600080546001600160a01b0319166001600160a01b0384811691909117909155811615620000cb57620000cb81620000e7565b5060029150620000de905082826200032d565b505050620003f9565b336001600160a01b03821603620001415760405162461bcd60e51b815260206004820152601760248201527f43616e6e6f74207472616e7366657220746f2073656c6600000000000000000060448201526064016200008f565b600180546001600160a01b0319166001600160a01b0383811691821790925560008054604051929316917fed8889f560326eb138920d842192f0eb3dd22b4f139c87a2c57538e05bae12789190a350565b634e487b7160e01b600052604160045260246000fd5b60008060408385031215620001bc57600080fd5b82516001600160a01b0381168114620001d457600080fd5b602084810151919350906001600160401b0380821115620001f457600080fd5b818601915086601f8301126200020957600080fd5b8151818111156200021e576200021e62000192565b604051601f8201601f19908116603f0116810190838211818310171562000249576200024962000192565b8160405282815289868487010111156200026257600080fd5b600093505b8284101562000286578484018601518185018701529285019262000267565b60008684830101528096505050505050509250929050565b600181811c90821680620002b357607f821691505b602082108103620002d457634e487b7160e01b600052602260045260246000fd5b50919050565b601f8211156200032857600081815260208120601f850160051c81016020861015620003035750805b601f850160051c820191505b8181101562000324578281556001016200030f565b5050505b505050565b81516001600160401b0381111562000349576200034962000192565b62000361816200035a84546200029e565b84620002da565b602080601f831160018114620003995760008415620003805750858301515b600019600386901b1c1916600185901b17855562000324565b600085815260208120601f198616915b82811015620003ca57888601518255948401946001909101908401620003a9565b5085821015620003e95787850151600019600388901b60f8161c191681555b5050505050600190811b01905550565b6080516119f26200041c600039600081816102180152610a7001526119f26000f3fe608060405234801561001057600080fd5b50600436106100b45760003560e01c80638da5cb5b116100715780638da5cb5b146101255780639681096f14610140578063af3fde1f14610153578063b1e21749146101ba578063d5a837e2146101c3578063f2fde38b146101fa57600080fd5b80630ca76175146100b95780633944ea3a146100ce5780634b0795a8146100ec5780635fb60ca3146100f457806367e828bf1461011557806379ba50971461011d575b600080fd5b6100cc6100c736600461122c565b61020d565b005b6100d6610291565b6040516100e391906112de565b60405180910390f35b6100d661031f565b610107610102366004611478565b61032c565b6040519081526020016100e3565b6100d6610485565b6100cc610492565b6000546040516001600160a01b0390911681526020016100e3565b61010761014e36600461154c565b610541565b6101a36101613660046115b1565b60009182526006602090815260408084209284529181529181902081518083019092525460ff8082161515808452610100909204161515919092018190529091565b6040805192151583529015156020830152016100e3565b61010760035481565b6101a36101d13660046115b1565b600660209081526000928352604080842090915290825290205460ff8082169161010090041682565b6100cc6102083660046115d3565b61055d565b336001600160a01b037f000000000000000000000000000000000000000000000000000000000000000016146102565760405163c6829f8360e01b815260040160405180910390fd5b610261838383610571565b60405183907f85e1543bf2f84fe80c6badbce3648c8539ad1df4d2b3d822938ca0538be727e690600090a2505050565b6004805461029e906115fc565b80601f01602080910402602001604051908101604052809291908181526020018280546102ca906115fc565b80156103175780601f106102ec57610100808354040283529160200191610317565b820191906000526020600020905b8154815290600101906020018083116102fa57829003601f168201915b505050505081565b6005805461029e906115fc565b600061036f6040805160e0810190915280600081526020016000815260200160008152602001606081526020016060815260200160608152602001606081525090565b61040c6002805461037f906115fc565b80601f01602080910402602001604051908101604052809291908181526020018280546103ab906115fc565b80156103f85780601f106103cd576101008083540402835291602001916103f8565b820191906000526020600020905b8154815290600101906020018083116103db57829003601f168201915b50505050508261066790919063ffffffff16565b8951156104225761041d818b610678565b61043c565b6001600160401b0388161561043c5761043c818a8a6106a9565b86511561044d5761044d818861073f565b85511561045e5761045e8187610769565b61047261046a82610793565b868686610a6b565b60038190559a9950505050505050505050565b6002805461029e906115fc565b6001546001600160a01b031633146104ea5760405162461bcd60e51b815260206004820152601660248201527526bab9ba10313290383937b837b9b2b21037bbb732b960511b60448201526064015b60405180910390fd5b60008054336001600160a01b0319808316821784556001805490911690556040516001600160a01b0390921692909183917f8be0079c531659141344cd1fd0a4f28419497f9722a3daafe3b4186f6b6457e091a350565b600061054f85858585610a6b565b600381905595945050505050565b610565610b3d565b61056e81610b92565b50565b82600354146105965760405163d068bf5b60e01b8152600481018490526024016104e1565b60046105a28382611684565b5060056105af8282611684565b506000806000848060200190518101906105c99190611743565b60408051808201825284151581526001602080830191825260008681526006825284812086825290915283902091518254915161ffff1990921690151561ff001916176101009115159190910217905551929550909350915086907fc29271fcf14c32ed21254327824a424f1c307e6053ac169c09789dce02f6ce7890610657908690869086908a9061177f565b60405180910390a2505050505050565b6106748260008084610c3b565b5050565b805160000361069a5760405163e889636f60e01b815260040160405180910390fd5b60016020830152608090910152565b60006106b6610100610cb9565b90506106e9604051806040016040528060068152602001651cdb1bdd125160d21b81525082610cda90919063ffffffff16565b6106f68160ff8516610cf8565b6040805180820190915260078152663b32b939b4b7b760c91b602082015261071f908290610cda565b6107298183610cf8565b6002602085015251516080909301929092525050565b80516000036107615760405163fe936cb760e01b815260040160405180910390fd5b60a090910152565b805160000361078b5760405163fe936cb760e01b815260040160405180910390fd5b60c090910152565b606060006107a2610100610cb9565b90506107db6040518060400160405280600c81526020016b31b7b232a637b1b0ba34b7b760a11b81525082610cda90919063ffffffff16565b82516107f99060028111156107f2576107f26117b0565b8290610d04565b6040805180820190915260088152676c616e677561676560c01b6020820152610823908290610cda565b604083015161083a9080156107f2576107f26117b0565b604080518082019091526006815265736f7572636560d01b6020820152610862908290610cda565b6060830151610872908290610cda565b60a08301515115610906576040805180820190915260048152636172677360e01b60208201526108a3908290610cda565b6108ac81610d3d565b60005b8360a00151518110156108fc576108ec8460a0015182815181106108d5576108d56117c6565b602002602001015183610cda90919063ffffffff16565b6108f5816117f2565b90506108af565b5061090681610d61565b608083015151156109ca57600083602001516002811115610929576109296117b0565b036109475760405163a80d31f760e01b815260040160405180910390fd5b60408051808201909152600f81526e39b2b1b932ba39a637b1b0ba34b7b760891b6020820152610978908290610cda565b610991836020015160028111156107f2576107f26117b0565b6040805180820190915260078152667365637265747360c81b60208201526109ba908290610cda565b60808301516109ca908290610d7f565b60c08301515115610a635760408051808201909152600981526862797465734172677360b81b6020820152610a00908290610cda565b610a0981610d3d565b60005b8360c0015151811015610a5957610a498460c001518281518110610a3257610a326117c6565b602002602001015183610d7f90919063ffffffff16565b610a52816117f2565b9050610a0c565b50610a6381610d61565b515192915050565b6000807f00000000000000000000000000000000000000000000000000000000000000006001600160a01b031663461d27628688600188886040518663ffffffff1660e01b8152600401610ac395949392919061180b565b6020604051808303816000875af1158015610ae2573d6000803e3d6000fd5b505050506040513d601f19601f82011682018060405250810190610b069190611854565b60405190915081907f1131472297a800fee664d1d89cfa8f7676ff07189ecc53f80bbb5f4969099db890600090a295945050505050565b6000546001600160a01b03163314610b905760405162461bcd60e51b815260206004820152601660248201527527b7363c9031b0b63630b1363290313c9037bbb732b960511b60448201526064016104e1565b565b336001600160a01b03821603610bea5760405162461bcd60e51b815260206004820152601760248201527f43616e6e6f74207472616e7366657220746f2073656c6600000000000000000060448201526064016104e1565b600180546001600160a01b0319166001600160a01b0383811691821790925560008054604051929316917fed8889f560326eb138920d842192f0eb3dd22b4f139c87a2c57538e05bae12789190a350565b8051600003610c5d576040516322ce3edd60e01b815260040160405180910390fd5b83836002811115610c7057610c706117b0565b90816002811115610c8357610c836117b0565b90525060408401828015610c9957610c996117b0565b90818015610ca957610ca96117b0565b9052506060909301929092525050565b610cc161113a565b8051610ccd9083610d8c565b5060006020820152919050565b610ce78260038351610e06565b8151610cf39082610f25565b505050565b61067482600083610e06565b8151610d119060c2610f4d565b506106748282604051602001610d2991815260200190565b604051602081830303815290604052610d7f565b610d48816004610fb6565b600181602001818151610d5b919061186d565b90525050565b610d6c816007610fb6565b600181602001818151610d5b9190611880565b610ce78260028351610e06565b604080518082019091526060815260006020820152610dac602083611893565b15610dd457610dbc602083611893565b610dc7906020611880565b610dd1908361186d565b91505b602080840183905260405180855260008152908184010181811015610df857600080fd5b604052508290505b92915050565b6017816001600160401b031611610e32578251610e2c9060e0600585901b168317610f4d565b50505050565b60ff816001600160401b031611610e72578251610e5a906018611fe0600586901b1617610f4d565b508251610e2c906001600160401b0383166001610fcd565b61ffff816001600160401b031611610eb3578251610e9b906019611fe0600586901b1617610f4d565b508251610e2c906001600160401b0383166002610fcd565b63ffffffff816001600160401b031611610ef6578251610ede90601a611fe0600586901b1617610f4d565b508251610e2c906001600160401b0383166004610fcd565b8251610f0d90601b611fe0600586901b1617610f4d565b508251610e2c906001600160401b0383166008610fcd565b604080518082019091526060815260006020820152610f4683838451611052565b9392505050565b6040805180820190915260608152600060208201528251516000610f7282600161186d565b905084602001518210610f9357610f9385610f8e8360026118b5565b611123565b8451602083820101858153508051821115610fac578181525b5093949350505050565b8151610cf390601f611fe0600585901b1617610f4d565b6040805180820190915260608152600060208201528351516000610ff1828561186d565b9050856020015181111561100e5761100e86610f8e8360026118b5565b6000600161101e866101006119b0565b6110289190611880565b90508651828101878319825116178152508051831115611046578281525b50959695505050505050565b604080518082019091526060815260006020820152825182111561107557600080fd5b8351516000611084848361186d565b905085602001518111156110a1576110a186610f8e8360026118b5565b8551805183820160200191600091808511156110bb578482525b505050602086015b602086106110fb57805182526110da60208361186d565b91506110e760208261186d565b90506110f4602087611880565b95506110c3565b51815160001960208890036101000a0190811690199190911617905250849150509392505050565b815161112f8383610d8c565b50610e2c8382610f25565b6040518060400160405280611162604051806040016040528060608152602001600081525090565b8152602001600081525090565b634e487b7160e01b600052604160045260246000fd5b604051601f8201601f191681016001600160401b03811182821017156111ad576111ad61116f565b604052919050565b60006001600160401b038311156111ce576111ce61116f565b6111e1601f8401601f1916602001611185565b90508281528383830111156111f557600080fd5b828260208301376000602084830101529392505050565b600082601f83011261121d57600080fd5b610f46838335602085016111b5565b60008060006060848603121561124157600080fd5b8335925060208401356001600160401b038082111561125f57600080fd5b61126b8783880161120c565b9350604086013591508082111561128157600080fd5b5061128e8682870161120c565b9150509250925092565b6000815180845260005b818110156112be576020818501810151868301820152016112a2565b506000602082860101526020601f19601f83011685010191505092915050565b602081526000610f466020830184611298565b803560ff8116811461130257600080fd5b919050565b80356001600160401b038116811461130257600080fd5b60006001600160401b038211156113375761133761116f565b5060051b60200190565b600082601f83011261135257600080fd5b813560206113676113628361131e565b611185565b82815260059290921b8401810191818101908684111561138657600080fd5b8286015b848110156113da5780356001600160401b038111156113a95760008081fd5b8701603f810189136113bb5760008081fd5b6113cc8986830135604084016111b5565b84525091830191830161138a565b509695505050505050565b600082601f8301126113f657600080fd5b813560206114066113628361131e565b82815260059290921b8401810191818101908684111561142557600080fd5b8286015b848110156113da5780356001600160401b038111156114485760008081fd5b6114568986838b010161120c565b845250918301918301611429565b803563ffffffff8116811461130257600080fd5b600080600080600080600080610100898b03121561149557600080fd5b88356001600160401b03808211156114ac57600080fd5b6114b88c838d0161120c565b99506114c660208c016112f1565b98506114d460408c01611307565b975060608b01359150808211156114ea57600080fd5b6114f68c838d01611341565b965060808b013591508082111561150c57600080fd5b506115198b828c016113e5565b94505061152860a08a01611307565b925061153660c08a01611464565b915060e089013590509295985092959890939650565b6000806000806080858703121561156257600080fd5b84356001600160401b0381111561157857600080fd5b6115848782880161120c565b94505061159360208601611307565b92506115a160408601611464565b9396929550929360600135925050565b600080604083850312156115c457600080fd5b50508035926020909101359150565b6000602082840312156115e557600080fd5b81356001600160a01b0381168114610f4657600080fd5b600181811c9082168061161057607f821691505b60208210810361163057634e487b7160e01b600052602260045260246000fd5b50919050565b601f821115610cf357600081815260208120601f850160051c8101602086101561165d5750805b601f850160051c820191505b8181101561167c57828155600101611669565b505050505050565b81516001600160401b0381111561169d5761169d61116f565b6116b1816116ab84546115fc565b84611636565b602080601f8311600181146116e657600084156116ce5750858301515b600019600386901b1c1916600185901b17855561167c565b600085815260208120601f198616915b82811015611715578886015182559484019460019091019084016116f6565b50858210156117335787850151600019600388901b60f8161c191681555b5050505050600190811b01905550565b60008060006060848603121561175857600080fd5b8351801515811461176857600080fd5b602085015160409095015190969495509392505050565b84151581528360208201528260408201526080606082015260006117a66080830184611298565b9695505050505050565b634e487b7160e01b600052602160045260246000fd5b634e487b7160e01b600052603260045260246000fd5b634e487b7160e01b600052601160045260246000fd5b600060018201611804576118046117dc565b5060010190565b6001600160401b038616815260a06020820152600061182d60a0830187611298565b61ffff9590951660408301525063ffffffff92909216606083015260809091015292915050565b60006020828403121561186657600080fd5b5051919050565b80820180821115610e0057610e006117dc565b81810381811115610e0057610e006117dc565b6000826118b057634e487b7160e01b600052601260045260246000fd5b500690565b8082028115828204841417610e0057610e006117dc565b600181815b808511156119075781600019048211156118ed576118ed6117dc565b808516156118fa57918102915b93841c93908002906118d1565b509250929050565b60008261191e57506001610e00565b8161192b57506000610e00565b8160018114611941576002811461194b57611967565b6001915050610e00565b60ff84111561195c5761195c6117dc565b50506001821b610e00565b5060208310610133831016604e8410600b841016171561198a575081810a610e00565b61199483836118cc565b80600019048211156119a8576119a86117dc565b029392505050565b6000610f46838361190f56fea26469706673582212206a978f485f07f889d959a98802a5ea2e54b1590333dbdbcf1ae807bab823af7664736f6c63430008130033",
  "devdoc": {
    "kind": "dev",
    "methods": {
      "handleOracleFulfillment(bytes32,bytes,bytes)": {
        "details": "Either response or error parameter will be set, but never both.",
        "params": {
          "err": "Aggregated error either from the request's source code or from the execution pipeline.",
          "requestId": "The requestId returned by FunctionsClient.sendRequest().",
          "response": "Aggregated response from the request's source code."
        }
      }
    },
    "version": 1
  },
  "userdoc": {
    "kind": "user",
    "methods": {
      "acceptOwnership()": {
        "notice": "Allows an ownership transfer to be completed by the recipient."
      },
      "handleOracleFulfillment(bytes32,bytes,bytes)": {
        "notice": "Chainlink Functions response handler called by the Functions Router during fullilment from the designated transmitter node in an OCR round."
      },
      "owner()": {
        "notice": "Get the current owner"
      },
      "transferOwnership(address)": {
        "notice": "Allows an owner to begin transferring ownership to a new address."
      }
    },
    "version": 1
  },
  "storageLayout": {
    "storage": [
      {
        "astId": 816,
        "contract": "contracts/ETHOracle.sol:ETHOracle",
        "label": "s_owner",
        "offset": 0,
        "slot": "0",
        "type": "t_address"
      },
      {
        "astId": 818,
        "contract": "contracts/ETHOracle.sol:ETHOracle",
        "label": "s_pendingOwner",
        "offset": 0,
        "slot": "1",
        "type": "t_address"
      },
      {
        "astId": 2284,
        "contract": "contracts/ETHOracle.sol:ETHOracle",
        "label": "source",
        "offset": 0,
        "slot": "2",
        "type": "t_string_storage"
      },
      {
        "astId": 2286,
        "contract": "contracts/ETHOracle.sol:ETHOracle",
        "label": "s_lastRequestId",
        "offset": 0,
        "slot": "3",
        "type": "t_bytes32"
      },
      {
        "astId": 2288,
        "contract": "contracts/ETHOracle.sol:ETHOracle",
        "label": "s_lastResponse",
        "offset": 0,
        "slot": "4",
        "type": "t_bytes_storage"
      },
      {
        "astId": 2290,
        "contract": "contracts/ETHOracle.sol:ETHOracle",
        "label": "s_lastError",
        "offset": 0,
        "slot": "5",
        "type": "t_bytes_storage"
      },
      {
        "astId": 2302,
        "contract": "contracts/ETHOracle.sol:ETHOracle",
        "label": "priceIncreasedBetweenTimestamps",
        "offset": 0,
        "slot": "6",
        "type": "t_mapping(t_uint256,t_mapping(t_uint256,t_struct(PriceData)2295_storage))"
      }
    ],
    "types": {
      "t_address": {
        "encoding": "inplace",
        "label": "address",
        "numberOfBytes": "20"
      },
      "t_bool": {
        "encoding": "inplace",
        "label": "bool",
        "numberOfBytes": "1"
      },
      "t_bytes32": {
        "encoding": "inplace",
        "label": "bytes32",
        "numberOfBytes": "32"
      },
      "t_bytes_storage": {
        "encoding": "bytes",
        "label": "bytes",
        "numberOfBytes": "32"
      },
      "t_mapping(t_uint256,t_mapping(t_uint256,t_struct(PriceData)2295_storage))": {
        "encoding": "mapping",
        "key": "t_uint256",
        "label": "mapping(uint256 => mapping(uint256 => struct ETHOracle.PriceData))",
        "numberOfBytes": "32",
        "value": "t_mapping(t_uint256,t_struct(PriceData)2295_storage)"
      },
      "t_mapping(t_uint256,t_struct(PriceData)2295_storage)": {
        "encoding": "mapping",
        "key": "t_uint256",
        "label": "mapping(uint256 => struct ETHOracle.PriceData)",
        "numberOfBytes": "32",
        "value": "t_struct(PriceData)2295_storage"
      },
      "t_string_storage": {
        "encoding": "bytes",
        "label": "string",
        "numberOfBytes": "32"
      },
      "t_struct(PriceData)2295_storage": {
        "encoding": "inplace",
        "label": "struct ETHOracle.PriceData",
        "members": [
          {
            "astId": 2292,
            "contract": "contracts/ETHOracle.sol:ETHOracle",
            "label": "priceIncreased",
            "offset": 0,
            "slot": "0",
            "type": "t_bool"
          },
          {
            "astId": 2294,
            "contract": "contracts/ETHOracle.sol:ETHOracle",
            "label": "isSet",
            "offset": 1,
            "slot": "0",
            "type": "t_bool"
          }
        ],
        "numberOfBytes": "32"
      },
      "t_uint256": {
        "encoding": "inplace",
        "label": "uint256",
        "numberOfBytes": "32"
      }
    }
  }
}