{
  "address": "0x6941FDF2eAAd6c0De94CA6B004eBc38fFF0458f3",
  "abi": [
    {
      "inputs": [
        {
          "internalType": "address",
          "name": "oracleAddress",
          "type": "address"
        },
        {
          "internalType": "uint64",
          "name": "_subscriptionId",
          "type": "uint64"
        }
      ],
      "stateMutability": "payable",
      "type": "constructor"
    },
    {
      "anonymous": false,
      "inputs": [
        {
          "indexed": true,
          "internalType": "address",
          "name": "bettor",
          "type": "address"
        },
        {
          "indexed": true,
          "internalType": "uint256",
          "name": "betIndex",
          "type": "uint256"
        },
        {
          "indexed": false,
          "internalType": "uint256",
          "name": "amount",
          "type": "uint256"
        },
        {
          "indexed": false,
          "internalType": "bool",
          "name": "prediction",
          "type": "bool"
        },
        {
          "indexed": false,
          "internalType": "uint256",
          "name": "betTimestamp",
          "type": "uint256"
        }
      ],
      "name": "BetPlaced",
      "type": "event"
    },
    {
      "anonymous": false,
      "inputs": [
        {
          "indexed": true,
          "internalType": "address",
          "name": "bettor",
          "type": "address"
        },
        {
          "indexed": true,
          "internalType": "uint256",
          "name": "betIndex",
          "type": "uint256"
        },
        {
          "indexed": false,
          "internalType": "bool",
          "name": "win",
          "type": "bool"
        },
        {
          "indexed": false,
          "internalType": "uint256",
          "name": "payout",
          "type": "uint256"
        }
      ],
      "name": "BetResolved",
      "type": "event"
    },
    {
      "inputs": [],
      "name": "FLIP_FEE_PERCENTAGE",
      "outputs": [
        {
          "internalType": "uint256",
          "name": "",
          "type": "uint256"
        }
      ],
      "stateMutability": "view",
      "type": "function"
    },
    {
      "inputs": [],
      "name": "LOSS_MULTIPLIER",
      "outputs": [
        {
          "internalType": "uint256",
          "name": "",
          "type": "uint256"
        }
      ],
      "stateMutability": "view",
      "type": "function"
    },
    {
      "inputs": [],
      "name": "MAX_BET_PERCENTAGE",
      "outputs": [
        {
          "internalType": "uint256",
          "name": "",
          "type": "uint256"
        }
      ],
      "stateMutability": "view",
      "type": "function"
    },
    {
      "inputs": [],
      "name": "WIN_MULTIPLIER",
      "outputs": [
        {
          "internalType": "uint256",
          "name": "",
          "type": "uint256"
        }
      ],
      "stateMutability": "view",
      "type": "function"
    },
    {
      "inputs": [
        {
          "internalType": "uint256",
          "name": "timestamp",
          "type": "uint256"
        }
      ],
      "name": "addSixtySeconds",
      "outputs": [
        {
          "internalType": "uint256",
          "name": "",
          "type": "uint256"
        }
      ],
      "stateMutability": "pure",
      "type": "function"
    },
    {
      "inputs": [
        {
          "internalType": "address",
          "name": "",
          "type": "address"
        },
        {
          "internalType": "uint256",
          "name": "",
          "type": "uint256"
        }
      ],
      "name": "betsByAddress",
      "outputs": [
        {
          "internalType": "uint256",
          "name": "amount",
          "type": "uint256"
        },
        {
          "internalType": "bool",
          "name": "prediction",
          "type": "bool"
        },
        {
          "internalType": "uint256",
          "name": "betTimestamp",
          "type": "uint256"
        },
        {
          "internalType": "bool",
          "name": "resolved",
          "type": "bool"
        },
        {
          "internalType": "bool",
          "name": "win",
          "type": "bool"
        }
      ],
      "stateMutability": "view",
      "type": "function"
    },
    {
      "inputs": [],
      "name": "getMaxBetAmount",
      "outputs": [
        {
          "internalType": "uint256",
          "name": "",
          "type": "uint256"
        }
      ],
      "stateMutability": "view",
      "type": "function"
    },
    {
      "inputs": [
        {
          "internalType": "address",
          "name": "bettor",
          "type": "address"
        }
      ],
      "name": "getNumberOfBets",
      "outputs": [
        {
          "internalType": "uint256",
          "name": "",
          "type": "uint256"
        }
      ],
      "stateMutability": "view",
      "type": "function"
    },
    {
      "inputs": [],
      "name": "oracle",
      "outputs": [
        {
          "internalType": "contract IETHOracle",
          "name": "",
          "type": "address"
        }
      ],
      "stateMutability": "view",
      "type": "function"
    },
    {
      "inputs": [
        {
          "internalType": "bool",
          "name": "_prediction",
          "type": "bool"
        },
        {
          "internalType": "uint256",
          "name": "_amount",
          "type": "uint256"
        },
        {
          "internalType": "uint256",
          "name": "_betTimestamp",
          "type": "uint256"
        }
      ],
      "name": "placeBet",
      "outputs": [],
      "stateMutability": "payable",
      "type": "function"
    },
    {
      "inputs": [],
      "name": "reserve",
      "outputs": [
        {
          "internalType": "uint256",
          "name": "",
          "type": "uint256"
        }
      ],
      "stateMutability": "view",
      "type": "function"
    },
    {
      "inputs": [
        {
          "internalType": "uint256",
          "name": "_betIndex",
          "type": "uint256"
        }
      ],
      "name": "resolveBet",
      "outputs": [],
      "stateMutability": "nonpayable",
      "type": "function"
    },
    {
      "inputs": [],
      "name": "subscriptionId",
      "outputs": [
        {
          "internalType": "uint64",
          "name": "",
          "type": "uint64"
        }
      ],
      "stateMutability": "view",
      "type": "function"
    }
  ],
  "transactionHash": "0xa450c49349c481d3acb56b7a489a162e41a21dff30b991a4905c67379cecfd90",
  "args": [
    "0x77E1Bb33d34392b3C0dB5dFFDbADceED752aFC3b",
    2197
  ],
  "numDeployments": 16,
  "solcInputHash": "f26f8f1d64268dafcede5b418e276636",
  "bytecode": "0x60806040527f66756e2d657468657265756d2d7365706f6c69612d31000000000000000000006001556000600255604051610f67380380610f6783398101604081905261004b91610098565b600080546001600160401b038316600160a01b026001600160e01b03199091166001600160a01b038516171781556002805434929061008b9084906100ea565b9091555061011192505050565b600080604083850312156100ab57600080fd5b82516001600160a01b03811681146100c257600080fd5b60208401519092506001600160401b03811681146100df57600080fd5b809150509250929050565b8082018082111561010b57634e487b7160e01b600052601160045260246000fd5b92915050565b610e47806101206000396000f3fe6080604052600436106100c25760003560e01c806380e9cd751161007f5780639326335d116100595780639326335d1461021d578063cd3293de14610232578063ed6ddfa014610248578063f33e1d7f1461029457600080fd5b806380e9cd75146101b257806381995dee146101d25780638d2f48ad1461020857600080fd5b806309c1ba2e146100c75780631e00c5a51461010d5780634c36c36e14610122578063550ed1f0146101425780635f48f76c146101655780637dc0d1d01461017a575b600080fd5b3480156100d357600080fd5b506000546100ef90600160a01b900467ffffffffffffffff1681565b60405167ffffffffffffffff90911681526020015b60405180910390f35b61012061011b366004610afe565b6102a9565b005b34801561012e57600080fd5b5061012061013d366004610b33565b6105fb565b34801561014e57600080fd5b506101576108f8565b604051908152602001610104565b34801561017157600080fd5b50610157609681565b34801561018657600080fd5b5060005461019a906001600160a01b031681565b6040516001600160a01b039091168152602001610104565b3480156101be57600080fd5b506101576101cd366004610b33565b61091a565b3480156101de57600080fd5b506101576101ed366004610b68565b6001600160a01b031660009081526003602052604090205490565b34801561021457600080fd5b50610157605a81565b34801561022957600080fd5b50610157600381565b34801561023e57600080fd5b5061015760025481565b34801561025457600080fd5b50610268610263366004610b8a565b61092d565b60408051958652931515602086015292840191909152151560608301521515608082015260a001610104565b3480156102a057600080fd5b50610157603281565b8134146102f45760405162461bcd60e51b8152602060048201526014602482015273125b98dbdc9c9958dd081d985b1d59481cd95b9d60621b60448201526064015b60405180910390fd5b6064605a6002546103059190610bca565b61030f9190610be1565b8211156103695760405162461bcd60e51b815260206004820152602260248201527f42657420616d6f756e742065786365656473206d6178696d756d20616c6c6f77604482015261195960f21b60648201526084016102eb565b60006064610378600385610bca565b6103829190610be1565b905060006103908285610c03565b905081600260008282546103a49190610c16565b9091555050336000908152600360208181526040808420815160a0810183528681528a15158185019081528184018a81526060808401898152608085018a8152865460018082018955978c52898c20965160049091029096019586559351958501805460ff19169615159690961790955590516002808501919091559351929096018054915161ffff1990921692151561ff001916929092176101009115159190910217905581518181529384019091529082015b606081526020019060019003908161045957505060408051600080825260208201909252919250908161049c565b60608152602001906001900390816104875790505b5090506104a885610982565b826000815181106104bb576104bb610c3f565b602090810291909101015260006104d386603c610c16565b90506104de81610982565b836001815181106104f1576104f1610c3f565b602090810291909101015260008054600154604051635fb60ca360e01b81526001600160a01b03831693635fb60ca39361054d93919283928a928a92600160a01b90910467ffffffffffffffff1691620493e091600401610cf0565b6020604051808303816000875af115801561056c573d6000803e3d6000fd5b505050506040513d601f19601f820116820180604052508101906105909190610dbe565b50336000908152600360205260409020546105ad90600190610c03565b604080518681528a1515602082015290810188905233907f94b957532865eb7d3e939066462e42ad12109202dff0ce260d43eb264d68f41e9060600160405180910390a35050505050505050565b3360009081526003602052604090205481106106525760405162461bcd60e51b815260206004820152601660248201527542657420696e646578206f7574206f662072616e676560501b60448201526064016102eb565b33600090815260036020526040812080548390811061067357610673610c3f565b60009182526020909120600490910201600381015490915060ff16156106d25760405162461bcd60e51b815260206004820152601460248201527310995d08185b1c9958591e481c995cdbdb1d995960621b60448201526064016102eb565b60008054600283015482916001600160a01b03169063af3fde1f906106f881603c610c16565b6040516001600160e01b031960e085901b168152600481019290925260248201526044016040805180830381865afa158015610738573d6000803e3d6000fd5b505050506040513d601f19601f8201168201806040525081019061075c9190610dd7565b91509150806107ad5760405162461bcd60e51b815260206004820152601b60248201527f4f7261636c6520726573706f6e7365206e6f742079657420736574000000000060448201526064016102eb565b600183015460ff161515821515146000816107e25784546064906107d390603290610bca565b6107dd9190610be1565b6107fd565b84546064906107f390609690610bca565b6107fd9190610be1565b90508060025410156108485760405162461bcd60e51b8152602060048201526014602482015273496e73756666696369656e74207265736572766560601b60448201526064016102eb565b604051339082156108fc029083906000818181858888f19350505050158015610875573d6000803e3d6000fd5b5080600260008282546108889190610c03565b90915550506003850180548315156101000261ffff19909116176001179055604051869033907f14306f48f26a52fec5183f49b3a229b1ee86fba81b36ce97f308c7d7971e11b6906108e890869086909115158252602082015260400190565b60405180910390a3505050505050565b60006064605a60025461090b9190610bca565b6109159190610be1565b905090565b600061092782603c610c16565b92915050565b6003602052816000526040600020818154811061094957600080fd5b6000918252602090912060049091020180546001820154600283015460039093015491945060ff90811693508181169161010090041685565b6060600061098f83610a15565b600101905060008167ffffffffffffffff8111156109af576109af610c29565b6040519080825280601f01601f1916602001820160405280156109d9576020820181803683370190505b5090508181016020015b600019016f181899199a1a9b1b9c1cb0b131b232b360811b600a86061a8153600a85049450846109e357509392505050565b60008072184f03e93ff9f4daa797ed6e38ed64bf6a1f0160401b8310610a545772184f03e93ff9f4daa797ed6e38ed64bf6a1f0160401b830492506040015b6d04ee2d6d415b85acef81000000008310610a80576d04ee2d6d415b85acef8100000000830492506020015b662386f26fc100008310610a9e57662386f26fc10000830492506010015b6305f5e1008310610ab6576305f5e100830492506008015b6127108310610aca57612710830492506004015b60648310610adc576064830492506002015b600a83106109275760010192915050565b8015158114610afb57600080fd5b50565b600080600060608486031215610b1357600080fd5b8335610b1e81610aed565b95602085013595506040909401359392505050565b600060208284031215610b4557600080fd5b5035919050565b80356001600160a01b0381168114610b6357600080fd5b919050565b600060208284031215610b7a57600080fd5b610b8382610b4c565b9392505050565b60008060408385031215610b9d57600080fd5b610ba683610b4c565b946020939093013593505050565b634e487b7160e01b600052601160045260246000fd5b808202811582820484141761092757610927610bb4565b600082610bfe57634e487b7160e01b600052601260045260246000fd5b500490565b8181038181111561092757610927610bb4565b8082018082111561092757610927610bb4565b634e487b7160e01b600052604160045260246000fd5b634e487b7160e01b600052603260045260246000fd5b6000815180845260005b81811015610c7b57602081850181015186830182015201610c5f565b506000602082860101526020601f19601f83011685010191505092915050565b600081518084526020808501808196508360051b8101915082860160005b85811015610ce3578284038952610cd1848351610c55565b98850198935090840190600101610cb9565b5091979650505050505050565b610100808252600090820181905260ff891660208084019190915267ffffffffffffffff8916604084015261012060608401819052885190840181905261014080850192600583901b8601909101918a8201855b82811015610d735761013f19888603018652610d61858351610c55565b95840195945090830190600101610d44565b505050508381036080850152610d898189610c9b565b92505050610da360a083018667ffffffffffffffff169052565b63ffffffff9390931660c082015260e0015295945050505050565b600060208284031215610dd057600080fd5b5051919050565b60008060408385031215610dea57600080fd5b8251610df581610aed565b6020840151909250610e0681610aed565b80915050925092905056fea26469706673582212200c8ebc4a549ef433e7e55540b77b2202124684395fef8cd026463f386f40714664736f6c63430008130033",
  "devdoc": {
    "kind": "dev",
    "methods": {},
    "version": 1
  },
  "userdoc": {
    "kind": "user",
    "methods": {},
    "version": 1
  },
  "storageLayout": {
    "storage": [
      {
        "astId": 1240,
        "contract": "contracts/FlipTheCoin.sol:FlipTheCoin",
        "label": "oracle",
        "offset": 0,
        "slot": "0",
        "type": "t_contract(IETHOracle)1237"
      },
      {
        "astId": 1242,
        "contract": "contracts/FlipTheCoin.sol:FlipTheCoin",
        "label": "subscriptionId",
        "offset": 20,
        "slot": "0",
        "type": "t_uint64"
      },
      {
        "astId": 1245,
        "contract": "contracts/FlipTheCoin.sol:FlipTheCoin",
        "label": "donID",
        "offset": 0,
        "slot": "1",
        "type": "t_bytes32"
      },
      {
        "astId": 1260,
        "contract": "contracts/FlipTheCoin.sol:FlipTheCoin",
        "label": "reserve",
        "offset": 0,
        "slot": "2",
        "type": "t_uint256"
      },
      {
        "astId": 1277,
        "contract": "contracts/FlipTheCoin.sol:FlipTheCoin",
        "label": "betsByAddress",
        "offset": 0,
        "slot": "3",
        "type": "t_mapping(t_address,t_array(t_struct(Bet)1271_storage)dyn_storage)"
      }
    ],
    "types": {
      "t_address": {
        "encoding": "inplace",
        "label": "address",
        "numberOfBytes": "20"
      },
      "t_array(t_struct(Bet)1271_storage)dyn_storage": {
        "base": "t_struct(Bet)1271_storage",
        "encoding": "dynamic_array",
        "label": "struct FlipTheCoin.Bet[]",
        "numberOfBytes": "32"
      },
      "t_bool": {
        "encoding": "inplace",
        "label": "bool",
        "numberOfBytes": "1"
      },
      "t_bytes32": {
        "encoding": "inplace",
        "label": "bytes32",
        "numberOfBytes": "32"
      },
      "t_contract(IETHOracle)1237": {
        "encoding": "inplace",
        "label": "contract IETHOracle",
        "numberOfBytes": "20"
      },
      "t_mapping(t_address,t_array(t_struct(Bet)1271_storage)dyn_storage)": {
        "encoding": "mapping",
        "key": "t_address",
        "label": "mapping(address => struct FlipTheCoin.Bet[])",
        "numberOfBytes": "32",
        "value": "t_array(t_struct(Bet)1271_storage)dyn_storage"
      },
      "t_struct(Bet)1271_storage": {
        "encoding": "inplace",
        "label": "struct FlipTheCoin.Bet",
        "members": [
          {
            "astId": 1262,
            "contract": "contracts/FlipTheCoin.sol:FlipTheCoin",
            "label": "amount",
            "offset": 0,
            "slot": "0",
            "type": "t_uint256"
          },
          {
            "astId": 1264,
            "contract": "contracts/FlipTheCoin.sol:FlipTheCoin",
            "label": "prediction",
            "offset": 0,
            "slot": "1",
            "type": "t_bool"
          },
          {
            "astId": 1266,
            "contract": "contracts/FlipTheCoin.sol:FlipTheCoin",
            "label": "betTimestamp",
            "offset": 0,
            "slot": "2",
            "type": "t_uint256"
          },
          {
            "astId": 1268,
            "contract": "contracts/FlipTheCoin.sol:FlipTheCoin",
            "label": "resolved",
            "offset": 0,
            "slot": "3",
            "type": "t_bool"
          },
          {
            "astId": 1270,
            "contract": "contracts/FlipTheCoin.sol:FlipTheCoin",
            "label": "win",
            "offset": 1,
            "slot": "3",
            "type": "t_bool"
          }
        ],
        "numberOfBytes": "128"
      },
      "t_uint256": {
        "encoding": "inplace",
        "label": "uint256",
        "numberOfBytes": "32"
      },
      "t_uint64": {
        "encoding": "inplace",
        "label": "uint64",
        "numberOfBytes": "8"
      }
    }
  }
}